{
  "contractName": "StarNotary",
  "abi": [
    {
      "constant": true,
      "inputs": [],
      "name": "currentVersion",
      "outputs": [
        {
          "name": "",
          "type": "uint256"
        }
      ],
      "payable": false,
      "stateMutability": "view",
      "type": "function"
    },
    {
      "constant": true,
      "inputs": [
        {
          "name": "",
          "type": "address"
        }
      ],
      "name": "addressToStar",
      "outputs": [
        {
          "name": "name",
          "type": "string"
        }
      ],
      "payable": false,
      "stateMutability": "view",
      "type": "function"
    },
    {
      "inputs": [],
      "payable": false,
      "stateMutability": "nonpayable",
      "type": "constructor"
    },
    {
      "constant": false,
      "inputs": [],
      "name": "incrementVersion",
      "outputs": [],
      "payable": false,
      "stateMutability": "nonpayable",
      "type": "function"
    }
  ],
  "bytecode": "0x608060405234801561001057600080fd5b5060018081905550610256806100276000396000f300608060405260043610610057576000357c0100000000000000000000000000000000000000000000000000000000900463ffffffff1680632cf0a1fc1461005c5780639d888e8614610073578063d0b781f31461009e575b600080fd5b34801561006857600080fd5b5061007161015a565b005b34801561007f57600080fd5b5061008861016e565b6040518082815260200191505060405180910390f35b3480156100aa57600080fd5b506100df600480360381019080803573ffffffffffffffffffffffffffffffffffffffff169060200190929190505050610174565b6040518080602001828103825283818151815260200191508051906020019080838360005b8381101561011f578082015181840152602081019050610104565b50505050905090810190601f16801561014c5780820380516001836020036101000a031916815260200191505b509250505060405180910390f35b600160008154809291906001019190505550565b60015481565b6000602052806000526040600020600091509050806000018054600181600116156101000203166002900480601f0160208091040260200160405190810160405280929190818152602001828054600181600116156101000203166002900480156102205780601f106101f557610100808354040283529160200191610220565b820191906000526020600020905b81548152906001019060200180831161020357829003601f168201915b50505050509050815600a165627a7a723058204c57bda7a50685897e19270262b1b7348ef04ab2d2bf09ae7687cc37749a4b7b0029",
  "source": "pragma solidity ^0.4.24;\n\ncontract StarNotary {\n  struct Star {\n    string name;\n  }\n\n  mapping(address => Star) public addressToStar;\n  uint256 public currentVersion;\n\n  constructor() public {\n    currentVersion = 1;\n  }\n\n\n  function incrementVersion() external {\n    currentVersion++;\n  }\n}",
  "sourcePath": "/Users/rizidoro/projects/ethstar/smart_contracts/contracts/StarNotary.sol",
  "compiler": {
    "name": "solc",
    "version": "0.4.24+commit.e67f0147.Emscripten.clang"
  },
  "schemaVersion": "2.0.1",
  "updatedAt": "2018-10-21T20:12:17.401Z"
}